:020000040000fa
:020000040040ba
:10000000f8ef452009994000bbdf4000efe24000d7
:100010005fee40003ff24000ebfe400000000000b9
:100020000000000000000000000000006fdc400045
:10003000afe64000000000006fdc40006fdc4000d5
:100040006fdc40006fdc40006fdc40006fdc400084
:100050006fdc40006fdc40006fdc40006fdc400074
:100060006fdc4000000000006fdc40006fdc4000ef
:100070006fdc40006fdc4000210941006fdc400074
:100080006fdc40006fdc40006fdc40006fdc400044
:100090006fdc40006fdc40006fdc400041544100e9
:1000a0006fdc40006fdc40006fdc40006fdc400024
:1000b0006fdc40006fdc40006fdc40006fdc400014
:1000c0006fdc40006fdc40006fdc40006fdc400004
:1000d0006fdc40006fdc40006fdc400009444100f1
:1000e0006fdc40006fdc40006fdc40006fdc4000e4
:1000f0006fdc40006fdc40006fdc40006fdc4000d4
:100100006fdc40006fdc40006fdc40006fdc4000c3
:100110006fdc400000000000000000000000000054
:100120006fdc40006fdc40006fdc40006fdc4000a3
:100130006fdc40006fdc4000000000006fdc40001e
:100140006fdc40006fdc4000a93d4100dd3d410017
:100150006fdc40006fdc40006fdc4000113e41006e
:08016000453e4100793e4100db
:020000040000fa
:020000040040ba
:10016800f8b500bff8bc08bc9e4670478d2f41000b
:10017800f8b500bff8bc08bc9e467047692f41001f
:020000040000fa
:020000040040ba
:08018800b86100000100000055
:020000040000fa
:020000040040ba
:1001900061727000636c720055736167653a206923
:1001a0007034206172702f6677642f7461626c65a1
:1001b00020697820636c720d0a0000007375636318
:1001c0006573730049507634204152502053746156
:1001d000743a2025730d0a00706f6f6c3a20256405
:1001e0002c2070656e643a2025642c207478537539
:1001f000626d69743a2025642c20667764537562b9
:100200006d69743a2025640d0a0000007478536ffc
:100210006c7665643a2025642c20667764536f6c95
:100220007665643a2025642c20746f74536f6c7665
:1002300065643a2025642c20746f744661696c658e
:10024000643a2025640d0a004661696c656400000b
:100250004c696d69746564004469726563746564b2
:100260000000000055736167653a20616e6e6f751e
:100270006e636520302f310d0a0000002573206267
:1002800063617374207375626d69747465643a2078
:1002900025640d0a0000000055736167653a206d02
:1002a0006163696e666f200d0a00000045783a2090
:1002b0006d6163696e666f200d0a0000496e74659a
:1002c00072666163653a20257320447269766572af
:1002d00020537461746973746963730d0a000000bc
:1002e0000d0a2052656365697665205374617469ef
:1002f00073746963730d0a0009206e52784f6b5056
:1003000061636b6574733a2025640d0a09206e528f
:100310007850656e64427566666572733a2025642e
:100320000d0a09206e5278536368656442756666eb
:100330006572733a2025640d0a00000009206e5290
:10034000784572726f725061636b6574733a2025e1
:10035000640d0a09206e5278467261676d656e748d
:100360004572726f72733a2025640d0a09206e522d
:1003700078427566664e6f74417661696c61626c35
:10038000653a2025640d0a000d0a205472616e73cf
:100390006d697420537461746973746963730d0ab1
:1003a0000000000009206e54784f6b5061636b654c
:1003b00074733a2025640d0a09206e547850656ed6
:1003c00064427566666572733a2025640d0a0920d9
:1003d0006e54784572726f725061636b6574733ad4
:1003e0002025640d0a09206e54785175657565469f
:1003f000756c6c3a2025640d0a0d0a00096e6f7445
:1004000020737570706f727465640d0a00000000cf
:10041000496e746572666163653a20257320486190
:1004200072647761726520526567697374657220c2
:100430005374617475730d0a000000000920257360
:100440003a20307825780d0a000000006469736155
:10045000626c65640000000064697361626c650031
:10046000656e61626c656400656e61626c6500005a
:1004700055736167653a202573203c696e74657217
:10048000666163653e203c6f6e2f6f66663e200d91
:100490000a00000045783a20257320504943333242
:1004a000494e54206f6e200d0a000000556e6b6e91
:1004b0006f776e20696e746572666163650d0a0000
:1004c0006f6e00006f666600556e6b6e6f776e2004
:1004d0006f7074696f6e0d0a00000000257320258f
:1004e000730d0a004661696c656420746f20257382
:1004f0002025730d0a000000556e6b6e6f776e201d
:10050000736572766963652025730d0a000000002b
:100510006e6f6e6500000000800b4000010000005f
:100520002813400002000000c00440000300000047
:10053000c4044000030000009c17400004000000b9
:1005400055736167653a20646e7363203c64656c23
:100550002f696e666f2f6f6e2f6f66662f6c6f6fd1
:100560006b75703e200d0a0055736167653a202552
:1005700073203c6f6e2f6f66663e203c696e74651b
:1005800072666163653e203c7374726963742f7098
:100590007265663e2f3c636c6561723e200d0a00f9
:1005a00045783a202573206f6e20657468300d0af7
:1005b00000000000737472696374000070726566f5
:1005c00000000000636c6561720000005573616794
:1005d000653a20646e7363206c6f6f6b7570203c9e
:1005e000747970653e203c686f73744e616d653e32
:1005f000200d0a0048656c703a203c686f73744e99
:10060000616d653e2855524c29202d206c6f6f6b13
:1006100020757020666f7220686f73746e616d65ef
:100620000d0a000048656c703a203c747970653e94
:10063000203a2061206f72204120666f722049505d
:1006400076342061646472657373206c6f6f6b75b0
:10065000700d0a0048656c703a203c747970653ef4
:10066000203a2061616161206f7220414141412047
:10067000666f7220495076362061646472657373c8
:10068000206c6f6f6b75700d0a00000048656c7010
:100690003a203c747970653e203a20616e7920667c
:1006a0006f7220626f7468204950763420616e64e6
:1006b00020495076362061646472657373206c6fd4
:1006c0006f6b75700d0a0000646e7363206c6f6f42
:1006d0006b75703a20636f6d6d616e6420696e207a
:1006e00070726f67726573732e2052657472792011
:1006f0006c617465722e0d0a00000000410000005c
:100700006100000041414141000000006161616100
:1007100000000000414e5900616e7900646e736301
:10072000206c6f6f6b75703a205b25735d204c6f8a
:100730006f6b75702054797065206e6f74207375bf
:1007400070706f727465642e0d0a0000646e7363be
:10075000206c6f6f6b75703a20486f7374206e61f8
:100760006d6520746f6f206c6f6e672e20526574fc
:1007700072792e0d0a000000646e7363206c6f6f37
:100780006b75703a207265736f6c76696e6720685e
:100790006f73743a20257320666f722074797065c8
:1007a0003a2573200d0a000055736167653a20648d
:1007b0006e73632064656c203c686f73744e616d6a
:1007c000653e7c616c6c200d0a00000048656c7011
:1007d0003a203c686f73744e616d653e2855524ceb
:1007e00029202d2052656d6f76652074686520651f
:1007f0006e74727920696620657869737473200d50
:100800000a00000048656c703a20616c6c202d2055
:1008100052656d6f766520616c6c2074686520721e
:1008200065736f6c76656420656e747279200d0a4d
:1008300000000000616c6c005b25735d206e6f74be
:100840002070617274206f662074686520444e5376
:1008500020436163686520656e747279200d0a001b
:10086000496e636f6d706c65746520636f6d6d614b
:100870006e64200d0a00000055736167653a2064bc
:100880006e736320696e666f200d0a0048656c7098
:100890003a20646973706c61792074686520444ef5
:1008a0005320636163686520656e747279206465a6
:1008b0007461696c73200d0a00000000444e5320df
:1008c000436c69656e7420697320646f776e210dc7
:1008d0000a000000444e5320436c69656e74204941
:1008e00046202d205374726963743a2025732c209e
:1008f0005072656665727265643a2025730d0a0050
:10090000444e5320436c69656e74202d2074696dcc
:10091000653a2025642c2070656e64696e673a2004
:1009200025642c2063757272656e743a2025642ce0
:1009300020746f74616c3a2025640d0a0000000079
:10094000486f73746e616d65203d202573200d0a1c
:1009500054696d656f7574203d202564200d0a0073
:1009600049507634203d25730d0a000049507636f3
:10097000203d2025730d0a002d2d2d2d2d2d2d2de3
:100980002d2d2d2d2d2d2d2d2d2d2d2d2d2d2d2d97
:100990002d2d2d2d2d2d2d2d2d2d2d2d2d2d2d2d87
:1009a0002d2d2d2d2d2d2d2d2d2d2d2d0d0a000014
:1009b0004e6f20444e5320436c69656e7420436132
:1009c00063686520656e7472696573200d0a0000a6
:1009d000496e76616c696420496e70757420436f4e
:1009e0006d6d616e64203a5b202573205d200d0ad9
:1009f000000000006172703a2071756575652066af
:100a0000756c6c2f6572726f720d0a006172703aac
:100a1000206164647265737320616c7265616479ce
:100a2000207175657565640d0a0000006172703a89
:100a30002061646472657373206e65776c792071d0
:100a400075657565640d0a006c69737400000000bb
:100a50006172703a20256420736c6f747320696e24
:100a6000207468652063616368650d0a00000000fa
:100a70006172703a20495076342061646472657303
:100a8000733a2025730000002c204d41432041641f
:100a900064726573733a2025730000002c20636f25
:100aa0006d706c6574650d0a000000002c20706587
:100ab000726d616e656e740d0a0000006172703aad
:100ac000204950763420616464726573733a20253e
:100ad000732c207175657565640d0a00496e766129
:100ae0006c6964204950206164647265737320737b
:100af0007472696e67200d0a000000007265710053
:100b00006172703a207265736f6c766564202d2077
:100b10004950763420616464726573733a2025739a
:100b20002c204d414320416464726573733a202543
:100b3000730d0a0071756572790000006172703a78
:100b4000204950763420616464726573733a2025bd
:100b5000732c204d414320416464726573733a20c5
:100b600025730d0a000000006172703a206e6f203c
:100b70007375636820656e7472790d0a0000000059
:100b800064656c006172703a2072656d6f766564a1
:100b90002025730d0a00000055736167653a2061d6
:100ba000727020696e74657266616365206c69732a
:100bb000740d0a0055736167653a2061727020698f
:100bc0006e74657266616365207265712f717565fb
:100bd00072792f64656c206970416464720d0a003b
:100be00045783a20617270206574683020726571b2
:100bf000203139322e3136382e312e313035200d1c
:100c00000a000000556e6b6e6f776e20686561702c
:100c100020747970652e205573653a205b312c2045
:100c200025645d0d0a0000004e6f2068656170202c
:100c3000696e666f2065786973747320666f7220c1
:100c4000747970653a202573210d0a00486561703a
:100c500020747970653a2025732e20496e69746975
:100c6000616c2063726561746564206865617020e1
:100c700073697a653a2025642042797465730d0a98
:100c800000000000416c6c6f6361626c6520626cf7
:100c90006f636b20686561702073697a653a2025ff
:100ca000642042797465730d0a000000416c6c2069
:100cb000617661696c61626c652068656170207342
:100cc000697a653a2025642042797465732c20681e
:100cd0006967682077617465726d61726b3a20256f
:100ce000640d0a004c617374206865617020657240
:100cf000726f723a20307825780d0a004e6f2054ba
:100d00007261636520696e666f20657869737473bc
:100d10002e0d0a00537461636b2075702066616943
:100d20006c65640d0a000000537461636b2075707c
:100d3000207375636365656465640d0a00000000d7
:100d400055736167653a20737461636b203c7570fd
:100d50002f646f776e3e203c7072657365727665a6
:100d60003e0d0a0045783a20737461636b20646f0e
:100d7000776e2070726573657276650d0a000000eb
:100d800075700000537461636b20616c72656164ff
:100d900079207570210d0a005475726e20537461ac
:100da000636b20646f776e20616e64207468656e7b
:100db000207570210d0a00005265737461727469a8
:100dc0006e672074686520737461636b2077697443
:100dd0006820256420696e74657266616365287396
:100de000290d0a00646f776e000000005374616380
:100df0006b20646f776e3a2063616e6e6f7420674c
:100e00006574206120737461636b2068616e646c2b
:100e1000650d0a00537461636b20646f776e2073f5
:100e200075636365656465640d0a000055736167e9
:100e3000653a206966203c696e7465726661636517
:100e40003e203c646f776e2f75703e200d0a0000c7
:100e500045783a206966205049433332494e542040
:100e6000646f776e200d0a00556e6b6e6f776e2083
:100e7000696e746572666163652073706563696627
:100e8000696564200d0a00005468697320696e74f6
:100e900065726661636520616c7265616479207555
:100ea000700d0a004f7065726174696f6e20666123
:100eb000696c65642e204e6f20636f6e666967757e
:100ec000726174696f6e0d0a0000000066756c6ccb
:100ed000000000005468697320696e746572666171
:100ee000636520616c726561647920646f776e0d53
:100ef0000a00000057726f6e6720706172616d6545
:100f000074657220737065636966696564200d0a93
:100f1000000000004f7065726174696f6e20737518
:100f2000636365737366756c210d0a004f7065729b
:100f30006174696f6e206661696c6564210d0a00d9
:100f400055736167653a207365746d6163203c6910
:100f50006e746572666163653e203c783a783a78d3
:100f60003a783a783a783e200d0a000045783a20df
:100f70007365746d6163205049433332494e542088
:100f800061613a62623a63633a64643a65653a66fb
:100f900066200d0a00000000617267765b325d3ae0
:100fa0002025730d0a000000496e76616c6964208b
:100fb0004d41432061646472657373207374726978
:100fc0006e67200d0a000000536574204d414320d8
:100fd00061646472657373206661696c65640d0a8f
:100fe000000000005365742042494f53204e616d4c
:100ff00065204f4b0d0a00005365742042494f5342
:10100000204e616d65206661696c65640d0a0000a3
:1010100055736167653a2073657462696f73203c2c
:10102000696e746572666163653e203c782e782e29
:10103000782e783e200d0a0045783a207365746258
:10104000696f73205049433332494e54204d434811
:1010500050424f4152445f3239200d0a00000000d7
:101060005365742067617465776179206164647287
:10107000657373204f4b0d0a000000005365742008
:101080006761746577617920616464726573732048
:101090006661696c65640d0a000000005573616744
:1010a000653a207365746777203c696e7465726673
:1010b0006163653e203c697076342f36206164643c
:1010c000726573733e203c76616c696454696d652a
:1010d0003e200d0a0000000045783a2073657467d1
:1010e00077205049433332494e54203139322e3122
:1010f00036382e302e31200d0a0000005365742042
:1011000069702061646472657373204f4b0d0a002f
:10111000536574206970206164647265737320661e
:1011200061696c65640d0a0055736167653a2073e7
:1011300065746970203c696e746572666163653eb2
:10114000203c697076342f36206164647265737355
:101150003e203c697076346d61736b2f6970763612
:1011600020707265666978206c656e3e0d0a00001d
:1011700045783a2073657469702050494333324989
:101180004e54203139322e3136382e302e3820321e
:1011900035352e3235352e3235352e30200d0a00bc
:1011a0004e6f207375636820696e74657266616343
:1011b000652069732075700d0a000000416e206182
:1011c0006464726573732073657276696365206900
:1011d0007320616c72656164792072756e6e696ee0
:1011e000672e2053746f7020444843502c205a437c
:1011f0004c4c2c206574632e2066697273740d0a42
:1012000000000000496e76616c6964204950206dd1
:1012100061736b20737472696e67200d0a000000a1
:101220006661696c6564000055736167653a207397
:101230006574646e7320312f32203c696e74657260
:10124000666163653e203c782e782e782e783e20ad
:101250000d0a000045783a20736574646e7320317e
:101260002065746830203235352e3235352e3235d2
:10127000352e30200d0a0000556e6b6e6f776e2094
:10128000444e5320696e6465780d0a0053657420de
:10129000444e532025642061646472657373202575
:1012a000730d0a006e6f7420676976656e0000002a
:1012b0004e6f6e65000000006661696c0000000002
:1012c00055736167653a202573203c696e746572b9
:1012d000666163653e203c6f6e2f6f66662f726598
:1012e0006e65772f726571756573742f696e666fa1
:1012f0003e200d0a0000000072656e657700000058
:1013000072657175657374005265717565737420cb
:101310006e6565647320616e20495020616464725b
:101320006573730d0a000000696e666f00000000af
:1013300044484350207374617475733a20256420c7
:1013400028202564203d3d20426f756e64292c20a5
:1013500074696d653a2025640d0a000044484350c5
:10136000206c656173652073746172743a20256422
:101370002c206475726174696f6e3a202564730d58
:101380000a000000444843502072656e657720745f
:10139000696d653a2025642c20726562696e64204f
:1013a00074696d653a2025640d0a00004448435075
:1013b00020616464726573733a2025730d0a00001e
:1013c00044484350207365727665723a2025730d48
:1013d0000a0000004448435020626f6f74206e6121
:1013e0006d653a2025730d0a000000004448435003
:1013f0002054696d6520736572766572733a202595
:10140000642c2025730d0a0044484350204e54504c
:1014100020736572766572733a2025642c202573db
:101420000d0a0000444843503a206661696c6564c7
:1014300020746f2067657420696e666f0d0a000066
:1014400025732025732025730d0a000073756363cf
:1014500065737366756c00006661696c6564210074
:10146000736574006765740044656661756c74200b
:10147000696e746572666163652073657420257397
:101480000d0a000044656661756c7420696e7465b0
:1014900072666163652069733a2025730d0a000046
:1014a00055736167653a206465666e65742073657f
:1014b000742f676574203c696e746572666163653c
:1014c0003e0d0a0045783a206465666e65742073a7
:1014d000657420657468300d0a00000055500000e6
:1014e000444f574e000000005265616479000000cf
:1014f0004e6f742052656164790000005573616716
:10150000653a206e6574696e666f0d0a0000000012
:1015100045783a206e6574696e666f0d0a000000aa
:101520002d2d2d2d2d2d2d2d2d2d20496e746572d7
:1015300066616365203c25732f25733e202d2d2d7c
:101540002d2d2d2d2d2d2d200d0a0000496e746599
:10155000726661636520697320646f776e0d0a009f
:10156000486f7374204e616d653a202573202d20dd
:101570004e424e532064697361626c6564200d0aab
:101580000000000049507634204164647265737332
:101590003a2025730d0a00004d61736b3a202573c4
:1015a0000d0a0000476174657761793a2025730d53
:1015b0000a000000444e53313a2025730d0a000002
:1015c000444e53323a2025730d0a00004d4143200a
:1015d000416464726573733a2025730d0a0000003c
:1015e000646863702069732025730d0a0000000091
:1015f0004c696e6b2069732025730d0a0000000092
:101600005374617475733a2025730d0a000000004d
:1016100064656661756c742049502061646472650c
:10162000737300002573206973204f4e0d0a00006c
:101630006468637000000000444e53204c6f6f6b71
:1016400075703a20444e53206661696c757265204e
:10165000666f722025732c206572723a2025640d06
:101660000a000000444e53204c6f6f6b75703a2097
:10167000726571756573742074696d656f75742e0c
:101680000d0a00004c6f6f6b757020416e737765ab
:10169000723a0d0a2d2d2d2d2d2d2d2d2d2d2d2d6b
:1016a0002d2d2d2d2d2d2d2d2d2d0d0a0000000061
:1016b0004e6f204c6f6f6b757020656e7472792061
:1016c000666f72205b25735d0d0a00005b25735dfc
:1016d0002041204950763420416464726573732040
:1016e0003a2025642e25642e25642e25640d0a00db
:1016f0005b25735d204141414120495076362041b0
:10170000646472657373203a25730d0a000000004b
:101710003a20737461636b20636f6d6d616e6473e7
:101720000000000074637069700000004661696c1d
:10173000656420746f206372656174652054435042
:10174000495020436f6d6d616e64730d0a00000097
:10175000544350495020636f6d6d616e6473207403
:1017600061736b20726567697374726174696f6eff
:10177000206661696c65640d0a000000696e74651d
:10178000726e616c00000000706f6f6c00000000f2
:1017900065787465726e616c000000006c6f6f6b31
:1017a000757000006e6574696e666f003a2047655b
:1017b00074206e6574776f726b20696e666f726de0
:1017c0006174696f6e0000006465666e6574000088
:1017d0003a205365742f4765742064656661756ca3
:1017e0007420696e74657266616365003a204448ce
:1017f000435020636c69656e7420636f6d6d616e1c
:101800006473000064686370730000003a205475cc
:10181000726e204448435020736572766572206f63
:101820006e2f6f66660000007a636c6c000000002b
:101830003a205475726e205a434c4c206f6e2f6fb5
:1018400066660000736574646e7300003a20536529
:101850007420444e53206164647265737300000009
:1018600073657469700000003a2053657420495014
:10187000206164647265737320616e64206d6173ae
:101880006b00000073657467770000003a205365b1
:10189000742047617465776179206164647265734f
:1018a0007300000073657462696f73003a205365ba
:1018b0007420686f73742773204e657442494f53c8
:1018c000206e616d650000007365746d61630000da
:1018d0003a20536574204d414320616464726573fe
:1018e00073000000696600003a204272696e67204a
:1018f000616e20696e746572666163652075702f14
:10190000646f776e00000000737461636b00000009
:101910003a20537461636b207475726e206f6e2f62
:101920006f66660068656170696e666f0000000032
:101930003a20436865636b20686561702073746149
:10194000747573003a2041525020636f6d6d616e63
:1019500064730000646e7363000000003a20444e1c
:101960005320636c69656e7420636f6d6d616e6486
:10197000730000006d6163696e666f003a20436812
:1019800065636b204d41432073746174697374699e
:1019900063730000616e6e6f756e6365000000001a
:1019a0003a20416e6e6f756e636500006970340099
:0819b0003a2049507634000092
:020000040000fa
:020000040040ba
:1019b800ec0740201c00000000000000d805402073
:1019c80068000000000000001c0740200400000020
:1019d8000000000040fd4520340200000100000026
:1019e8000418410000000000000000000000000092
:1019f80000000000000000000000000000000000df
:101a080000000000000000000000000000000000ce
:101a180000000000000000000000000000000000be
:101a280000000000000000000000000000000000ae
:101c180000000000eb074020010000000100000068
:101c2800ff00000000f04520d00000000100000087
:101c3800000000000000000000000000000000009c
:101c4800000000000000000000000000000000008c
:101c5800000000000000000000000000000000007c
:101c6800000000000000000000000000000000006c
:101c7800000000000000000000000000000000005c
:101c8800000000000000000000000000000000004c
:101c9800000000000000000000000000000000003c
:101ca800000000000000000000000000000000002c
:101cb800000000000000000000000000000000001c
:101cc800000000000000000000000000000000000c
:101cd80000000000000000000000000000000000fc
:101ce80000000000000000000000000000000000ec
:101cf80000000000000000000000000000000000dc
:101d0800dc0840200400000000000000cc0840204f
:101d18000600000001000000274243474849000030
:101d2800340440209400000000000000e008402037
:101d38000400000000000000e40840200400000047
:101d4800000000009006402048000000000000004d
:101d5800d40840200600000001000000ffffffff3c
:101d6800ffff0000080840201800000000000000e5
:101d7800e80840200400000000000000ec084020b3
:101d88000400000000000000f008402004000000eb
:101d980000000000cc0740201f00000000000000e9
:101da800f40840200400000000000000f80840206b
:101db8000400000000000000fc08402004000000af
:101dc800000000000009402004000000000000009e
:101dd800c80940200100000000000000c909402097
:101de800010000000100000001000000040940207b
:101df8000400000000000000080940200400000062
:101e0800000000000c094020040000000000000051
:101e1800f4ff45200c00000000000000600840208e
:101e28001000000000000000ca0940200100000066
:101e380000000000d208402002000000000000005e
:101e4800da084020020000000000000010094020cd
:101e5800040000000000000070084020100000008e
:101e680000000000140940200400000000000000e9
:101e7800180940200400000000000000be094020ae
:101e88000200000000000000c0094020020000001d
:101e9800000000001c0940200400000000000000b1
:101ea8002009402004000000000000002409402010
:101eb800040000000000000080084020100000001e
:101ec8000000000028094020040000000000000075
:101ed800c209402002000000000000002c09402038
:101ee8000400000000000000300940200400000049
:101ef80000000000600740202800000000000000eb
:101f0800340940200400000000000000c8044020fc
:101f18009000000000000000d0fa45207002000088
:101f28000000000038094020040000000000000004
:101f38003c09402004000000000000004009402047
:101f480004000000000000004409402004000000d4
:101f580000000000480940200400000000000000c4
:101f68004c094020040000000000000050094020f7
:101f7800040000000000000090084020100000004d
:101f880000000000200840201800000000000000a9
:101f9800ac07402020000000000000005409402049
:101fa8000400000000000000cb09402001000000f0
:101fb8000000000058094020040000000000000054
:101fc8005c0940200400000001000000ffffffff43
:101fd800600940200400000000000000640940205f
:101fe8000400000000000000680940200400000010
:101ff800000000006c094020040000000000000000
:10200800c4094020020000000000000070094020c0
:1020180004000000000000007409402004000000d3
:1020280000000000cc094020010000000000000072
:10203800ac084020080000000000000074ff4520a4
:1020480080000000000000005805402080000000cb
:1020580000000000d80640204400000000000000f6
:10206800b408402008000000000000007809402063
:102078000400000000000000cd094020010000001d
:1020880000000000d0f04520000a00000000000019
:102098007c09402004000000000000008009402066
:1020a8000400000000000000d4024020c00000002e
:1020b80000000000bc0840200800000000000000ec
:1020c800a00840200c000000000000000c02402086
:1020d800c800000000000000ce09402001000000f8
:1020e80000000000cf0940200100000000000000af
:1020f800d0094020010000000000000084094020b1
:1021080004000000000000002007402040000000fc
:102118000000000094034020a00000000000000020
:10212800c609402002000000010000000100000074
:102138008809402004000000000000008c094020ad
:102148000400000000000000bc094020020000005c
:10215800000000009009402004000000000000007a
:1021680038084020140000000000000094094020b6
:1021780004000000000000004c084020140000008b
:102188000100000001010000e99040002d5d4100c0
:10219800c5bd400052990000980940200400000085
:1021a800000000009c09402004000000000000001e
:1021b800c40840200800000001000000ffffffffe6
:1021c800ffffffff880740202400000000000000f8
:1021d800a00940200400000000000000a4094020dd
:1021e80004000000000000004006402050000000ed
:1021f80000000000000040200c0200000000000069
:10220800a80940200400000000000000ac0940209c
:102218000400000000000000b00940200400000095
:1022280000000000b4094020040000000000000085
:10223800b809402004000000000000000000000071
:1022480000000000222222222222222222222222ee
:020000040000fa
:020000040040ba
:102258005478204279746520436f756e742d6c6fc5
:10226800776572203332626974732854784f544cfe
:102278004f290000ed6541005478204279746520ab
:10228800436f756e742d7570706572203136626992
:1022980074732854784f544849290000f96541005f
:1022a8005478204672616d657320772f6f206572b0
:1022b800726f722854784654434e54290000000027
:1022c800000000000566410054782042726f616486
:1022d80063617374204672616d6573285478424354
:1022e800465429000000000000000000116641006b
:1022f8005478204d756c74696361737420467261fb
:102308006d65732854784d4654290000000000007c
:10231800000000001d664100547820506175736507
:10232800204672616d657328547850465429000020
:1023380000000000000000000000000029664100c5
:1023480054782036342d62797465204672616d6543
:10235800732854784246543634290000000000009f
:10236800000000003566410054782036352d3132a2
:10237800372062797465204672616d65732854420e
:102388004654313237290000000000004166410000
:102398005478203132382d323535206279746520f1
:1023a8004672616d657328544246543235352900aa
:1023b800000000004d6641005478203235362d3536
:1023c80031312062797465204672616d65732854d5
:1023d8004246543531312900000000005966410059
:1023e8005478203531322d3130323320627974659a
:1023f800204672616d657328544246543130323339
:102408002900000065664100547820313032342daf
:10241800313531382062797465204672616d657393
:10242800285442465431353138290000716641003c
:102438005478204672616d6573203e3d20313531f8
:102448003820627974652847544246313531382935
:10245800000000007d664100547820556e64657266
:1024680072756e204672616d6573206e6f742054ac
:1024780058656428547854555229000089664100eb
:1024880054782053696e676c6520436f6c6c697370
:10249800696f6e204672616d6573285478534346a0
:1024a8002900000095664100547820322d313520ee
:1024b800436f6c6c6973696f6e204672616d6573ea
:1024c8002854784d4346290000000000a1664100c9
:1024d800547820313620436f6c6c6973696f6e20b5
:1024e8004672616d65732854784543434e542900fc
:1024f80000000000ad6641005478206c61746520ce
:10250800436f6c6c6973696f6e204672616d657399
:102518002854784c43434e5429000000b9664100c2
:102528005478204465666572726564204672616df0
:1025380065732854784454462900000000000000c0
:1025480000000000c566410054782043617272693a
:1025580065722053656e7365206572726f722046ce
:1025680072616d657328547843534529d1664100db
:102578005278204279746520436f756e742d6c6fa4
:10258800776572203332626974732852784f524cdf
:102598004f290000dd664100527820427974652099
:1025a800436f756e742d757070657220313662696f
:1025b80074732852784f524849290000e96641004f
:1025c8005278204672616d657320772f6f2065728f
:1025d800726f722852784652434e54290000000008
:1025e80000000000f566410052782042726f616475
:1025f80063617374204672616d6573285278424333
:102608004652290000000000000000000167410058
:102618005278204d756c74696361737420467261d9
:102628006d6573202852784d46522900000000003d
:10263800000000000d6741005278205061757365f5
:10264800204672616d657328527850465229000001
:1026580000000000000000000000000019674100b1
:1026680052782036342d62797465204672616d6522
:102678007328527842465236342900000000000080
:10268800000000002567410052782036352d313290
:10269800372062797465204672616d6573285442eb
:1026a80046523132372900000000000031674100ee
:1026b8005278203132382d323535206279746520d0
:1026c8004672616d65732854424652323535290089
:1026d800000000003d6741005278203235362d3524
:1026e80031312062797465204672616d65732854b2
:1026f8004246523531312900000000004967410047
:102708005278203531322d31303233206279746578
:10271800204672616d657328544246523130323317
:102728002900000055674100527820313032342d9d
:10273800313531382062797465204672616d657370
:10274800285442465231353138290000616741002a
:102758005278204672616d6573203e3d20313531d7
:102768003920627974657328544d584246522900bd
:10277800000000006d6741005278204672616d6567
:1027880073203c203634206279746573285278555a
:10279800465229000000000000000000796741004f
:1027a8005278204672616d6573203e20313531388c
:1027b8002062797465732852784f465229000000c8
:1027c80000000000856741005278206572726f72c0
:1027d800204672616d6573203e20313531382062a4
:1027e800797465732852784a52290000916741002c
:1027f800527820435243206572726f72204672618c
:102808006d6573285278464353452900000000003f
:10281800000000009d6741005278204c656e677487
:1028280068206669656c64206572726f72204672f2
:10283800616d65732852784c46464529a967410061
:1028480052782073796d626f6c206572726f722096
:102858004672616d6573285278525345290000000d
:1028680000000000b5674100527820616c69676e0e
:102878006d656e74206572726f72204672616d6547
:10288800732852784145290000000000c1674100c3
:102898005278205265736f75726365204572726f46
:1028a800722028527852524529000000000000008a
:1028b80000000000cd6741005278206f7665727283
:1028c800756e206572726f72204672616d6573282d
:1028d8005278524f4529000000000000d967410096
:1028e80052782049504864722043686b73756d2094
:1028f8006572726f72204672616d657328527849ed
:1029080048434529e5674100527820544350204305
:10291800686b73756d206572726f72204672616d97
:10292800657328527854434529000000f167410037
:102938005278205544502043686b73756d2065723a
:10294800726f72204672616d6573285278554345df
:0829580029000000fd674100a9
:020000040000fa
:020000040040ba
:10296000b04b834240f0ef82af4b93f90020531eef
:10297000dbb2012b00f2e7822de9f04f85b0ab4bc3
:102980001b6863b1012a1bd0a84b1c68a54b1b68b0
:10299000002b40f3ca8200252f46a24e72e0a44bc2
:1029a0001b6868469847002800f3aa8220b900985f
:1029b00010b101f04bfca3e29b4b00221a709fe286
:1029c0009c4b1b68b3f1ff3fded19b4a00210520e1
:1029d00013f074f9974b1860b0f1ff3f25d012f057
:1029e0004bfb00eb800303f2e733944aa2fb032383
:1029f0009b094ff47a7202fb03f3b3fbf0f3904aa6
:102a0000136002258f4c03e001351034272dbbd015
:102a10002368002bf8d0b4f90a20002af4d021460c
:102a2000a8b212f09dfa0028eed113f059ff88b930
:102a30000af098fd7c4bff221a7013f051ff00281a
:102a400000f05e8213f046ff4ff0ff327e490df03a
:102a50009dff55e213f03eff05227c490df096ffe5
:102a6000e6e703230422214630460ef0fdf994f8f0
:102a7000433043f0800384f8433001356c343368cd
:102a80009d4242dae06c0028f7d0636c9b6998475e
:102a900094f8433013f0400fefd0636c5b69e06c47
:102aa00098470028dddb0228e7d1009701970297bd
:102ab000039740f2dc53adf80a30636c1b6c694637
:102ac000206d98470098e063bdf80430a4f84030ca
:102ad000bdf80630003318bf012394f8432063f398
:102ae000451284f84320bdf80a30a4f85e3094f80b
:102af000423043f0400384f84230d3b203f0bf03c6
:102b000043f0800384f84330b7e7474a92f9002046
:102b1000012a24d000200ef05ffb4d4b1b6833b917
:102b20004c4b1a684c4b1b68134300f0e981484b2f
:102b30001b68002b69d10025464b1b68002b00f059
:102b40006381444b00221a60384b1c68354b1b686c
:102b5000934240f3f2801746dff80481bfe0334a26
:102b60001668002b40f3e781314600252a460127ed
:102b700006e007fa02f0054301326c31934212d0ad
:102b800091f8430000f00c04042cf2d110f0800ff7
:102b900000f0b68191f8420010f0400fecd007fa37
:102ba00002f00543e8e7012202fa03f3013bab42de
:102bb00000f0c1811b4b1b68002b17dd002444f281
:102bc0004008184f4ff003090ae04b4604223146f3
:102bd00038460ef049f901346c363b689c4205da00
:102be000b6f8423018ea030ff5d0eee70e4bff229d
:102bf0001a7013f075fe002800f0828113f06afe4f
:102c00002a4616490df0c2fe7ae1114b00221a60e5
:102c1000064b1c68034b1b68934240f37b811546af
:102c2000004e2ee0ac074020cb0940205009402048
:102c3000540940205c094020994e4100d34d621058
:102c400048094020f0fa4520283d4000f83c40006b
:102c5000400940205809402044094020983d400048
:102c6000d404402094f8603043f0020360f3820300
:102c700060f3000384f8603001356c3433689d42a2
:102c80000fda94f8423013f0400ff5d0636c5b6ab2
:102c9000206d984794f8603003f001039842e1d129
:102ca000eae7012548e701254be7002603e08c62af
:102cb000404613f0c1f8636c5b6b32463146206dc1
:102cc000984701460028f2d19f4a136801331360e8
:102cd00029e001376c349d4b1b68bb422ddd94f815
:102ce000423013f0400ff4d0b4f85a60636c5b6d5f
:102cf000206d98470643b6b213f088feb4f85a30f8
:102d000023ea0603a4f85a3013f084feb4f85c30ca
:102d10003343a4f85c30636c1b6d3146206d9847db
:102d200016f0160fc1d194f8433013f0200fd0d015
:102d3000636c9b6b206d9847cbe70027844e06f1b0
:102d40000c04dff8348208f10609204612f028fd51
:102d5000844600284fd0dcf814309a89130a43eadd
:102d600002239bb240f60602934216d0b3f5006fe1
:102d70000ad04ff6ff7293420ad001226ff00c0185
:102d8000604610f091fae0e7ca464ff0010b07e009
:102d900008f10c0a4ff0020b02e04ff0000bc246a4
:102da000bcf8223023f47c539bb2acf82230baf842
:102db00002201343acf82230baf8040000eb4000c4
:102dc000614606eb800013f037f8012303fa0bfb92
:102dd0001bea070fb9d147ea0b07baf804305d4880
:102de00000eb0310038943f001030381002201215a
:102df00012f0a0fea9e713f009fe564a138b23f048
:102e00000103138313f006fe534b1c684f4b1b68e2
:102e1000002b35dd002640f28668dff860914b4fcd
:102e20000ce094f8602012f0020f17d10023a4f8f0
:102e30005c3001366c343b68b34221dd94f842309b
:102e400013f0400ff5d0b4f85c3013ea080fe8d067
:102e5000d9f800200132c9f80020e2e712f0040f8f
:102e600014bf4ff400614ff4805194f860206ff369
:102e7000410284f86020194320460df00ffad5e78f
:102e8000002d4cd1334d05f1300405f520752ae0b5
:102e90001344a381238943f0020323813a4602218c
:102ea000204612f047fe1034ac420fd02368002bae
:102eb000f9d0b4f90a20002af5d03168a3895b1a49
:102ec0009bb219b20029e3dda181ece713f09efd6e
:102ed000204a138923f00203138113f09bfdd1e7ed
:102ee0001034ac4209d054f8103c34f8082c002ab5
:102ef000f6d0002bf4d09847f2e7184b1b6813b9b3
:102f000005b0bde8f08f00224ff48071144812f034
:102f100011fef5e7134b1b68002b7ff4c4ae124c77
:102f2000124e002704f51475c0e7114b93f90030d9
:102f3000012b7ff4efad0e4b02221a700d490020d9
:102f400011f0e2fbe6e570473c094020ac07402069
:102f5000c8044020d0fa45205009402044094020b0
:102f6000e0fa452058094020f0fa45204809402061
:102f7000cb094020683d40004861410038094020ad
:020000040000fa
:020000040040ba
:102f80002de9f04fc3b0054688469146466838acf7
:102f9000a04f0fcf0fc40fcf0fc497e8030084e8f2
:102fa0000300b8f1010f16ddd9f804a000270df1d8
:102fb000e00b5bf83710504613f01af90446a8b13d
:102fc0000137052ff5d12b685b6852469249304690
:102fd0009847002406e02b681b6807f1080130467b
:102fe00098470024204643b0bde8f08f42ab03eb86
:102ff000c70717f8243c013b032be4d8dfe813f0a4
:10300000f3006a0104006800b8f1020f12dc834c7f
:103010002b685b68d9f8002004f576713046984734
:103020002b685b68d9f8002004f582613046984728
:103030000124d7e7d9f8080010f016f90746e8b1df
:10304000d9f8044002227649204612f07dfee0b90c
:10305000b8f1030f40f3ed81d9f80c4071492046d7
:1030600013f0c6f8002800f0f9816f49204613f0ec
:10307000bff8002814bf00210221dbe12b681b6888
:103080006a49304698470124ace702226849204645
:1030900012f05afe60b9b8f1030f40f3e1816549bf
:1030a000d9f80c0013f0a4f8b0fa80f14909d8e17e
:1030b0002b681b68604930469847012492e72b68cb
:1030c0005c68d9f800305d493046a047012489e7a3
:1030d000b8f1040f1fd0514f2b681b6807f23c4119
:1030e000304698472b681b6807f264413046984782
:1030f0002b681b6807f29441304698472b681b6881
:1031000007f2c441304698472b681b6807f2fc4120
:103110003046984766e74a4b1b78e3b9d9f8084030
:103120004849204613f064f820b14749204613f07f
:103130005ff8b8b9454b01221a70d9f80c40204607
:1031400013f0f2f91e2831d92b681b68404930462c
:103150009847012446e72b681b683e49304698474c
:1031600001243fe73c49204613f042f820b13b4997
:10317000204613f03df818b9344b1c221a70dce7d6
:103180003749204613f034f820b13649204613f071
:103190002ff818b92d4bff221a70cee72b685b6809
:1031a000224631493046984701241be72f4e2146dd
:1031b000304613f0b9fb6a682d4b1a602b685c68c7
:1031c000d9f8083032462b492846a0471c4b082224
:1031d0001a70294b1d60c822284b19681f2011f056
:1031e000bffe0124fee6b8f1030f49d00b4f2b6858
:1031f0001b6807f5c361304698472b681b6807f2c8
:103200003c61304698472b681b6807f27461304672
:103210009847e7e618054000d009400090014000bb
:10322000c0044000b4054000bc054000ac044000b0
:10323000c4044000c4054000c8044000e404400049
:10324000c8094020fc06400000074000c909402092
:103250004c074000c8064000040740000c0740002f
:1032600014074000180740001c074000cc0740200e
:10327000f008402078074000fc084020000940206a
:10328000d9f808704fb17b49384612f0b1ff80463b
:1032900048b90ef0edfd4446a4e62b681b6876495c
:1032a000304698479ee638460ff05eff10f1060f55
:1032b0000ad0b0f1ff3f7ff495ae2b685b683a46c9
:1032c0006e49304698478de62b681b686c4930463e
:1032d000984787e6b8f1020f0ed06a4c2b681b683e
:1032e00004f5dd61304698472b681b6804f2fc61e9
:1032f00030469847012475e627ab1b9341231c9366
:103300000bab1d9305231e9302ab1f930123209348
:1033100006a810f01bfc28b12b681b685a493046e0
:103320009847e7e7069813f024fb0028574f18bf8b
:103330000746079813f01dfb0028544b18bf03469f
:10334000dff840812a68d2f804903a4608f24471c6
:103350003046c8472b68bdf828200192bdf82620ca
:1033600000925f68bdf82430089a08f5ee61304697
:10337000b847a0460027dff80c9109f5f66b4146e7
:103380001ba807f0c3f9002844d12b685f68229b73
:1033900027aa59463046b847259b002b0ddc209bb9
:1033a000002b1fdc2b685b68002209f5fd613046ad
:1033b0009847012708f10108e1e7274609f5fa6a6d
:1033c0002c2210a91d9800eb87000ef043ff2b68fc
:1033d0005b6810aa5146304698470137259b9f42ab
:1033e000eedbdce7269b002bdcdd274609f2dc7aee
:1033f0002c2210a91f9800eb07100af0e1fb2b68a4
:103400005b6810aa5146304698470137269b9f4279
:10341000eedbc7e7c2b2012accd910f1040fc9d044
:10342000002f7ff467af2b681b6819493046984717
:1034300060e70021384613f00bfa124b03f53672a1
:1034400003f5347300283ff43aae2a685468d9f87b
:10345000002010493046a0470124c3e50121e9e7d7
:10346000002138460df0baf9064b03f5327203f528
:103470002f73e7e734084000c804400038084000d4
:103480006008400090014000bc084000100540006a
:08349000b0094000dc0440001b
:020000040000fa
:020000040040ba
:103498002de9f04f87b00f210c2011f071fd10f0cd
:1034a800020f40f0318210f0010f00f02a8213f071
:1034b800d7f9b0f1000940f31f820025dff8f0a327
:1034c8004ff05c0b42e10122114630460ff05efce2
:1034d80094f858306ff3451384f8583062e1304659
:1034e80012f085fa002800f02d81b4f85430022b30
:1034f8000dd0032b0cbf09230223a4f85630a06c6f
:10350800002800f01f8101210df0a2fd1ae104231b
:10351800a4f85630f3e7002120460bf015ff0022ef
:1035280084f8592094f8583003f0fd0362f38203bd
:1035380084f85830a262032301223146204605f060
:1035480013fc002800f0fe800121304610f098f8a6
:10355800204611f0c0f90323a4f85630f2e03146b2
:1035680020460af01dfe0a282ad0002800f0ea802a
:1035780094f8583043f0080384f85830022840f093
:10358800e1800423a4f85630b4f85430022b019b90
:1035980018bf032303223146204605f0e5fb002827
:1035a80000f0d080c14b1b68a3600221304610f0a8
:1035b80067f8204611f08ff90523a4f85630c1e0ca
:1035c80011f02efd6368c31a58f807209342c0f023
:1035d800b9800122022120460ef0e6ff072130467d
:1035e80010f04ef8aee0314620460af0d9fd0a2820
:1035f80040f0a88011f014fd6368c31a58f807203a
:103608009342c0f09f800122022120460ef0ccff99
:103618000721304610f034f894e0e36a0293002260
:1036280002a930460bf074f9002840f07c819f4bca
:103638001b6862689b1ab4f852209342c0f08280db
:10364800304612f04dfd0390304612f055fd0490bf
:1036580004f12c07002304f134023946304611f0f6
:10366800b5fd94f8593013f0020f33d196f8423073
:1036780013f0200f0ed094f8593013f0080f2fd103
:1036880094f8593013f0100f30d004f13c01304653
:1036980013f09cf90422012130460ff077fb45f224
:1036a80002033a46394630460ef08cfae36a626bfa
:1036b8001a40039b04990b409a421ed120460ff0f2
:1036c8000ffd082130460ff0dbff02a930460cf051
:1036d800a7fd37e004f13001304613f06ff9c5e774
:1036e80004f13801304613f06df9c9e7002305935a
:1036f80005a9304613f06af9cce7042304aa03a904
:10370800304608f0d7fbd9e7684b1b6862689b1afc
:10371800092b17d90022022120460ef045ff11e09f
:10372800624b1b68a2689b1a226993420ad3092339
:10373800a4f85630002309223146204605f014fb30
:1037480000284fd10135a94500f0d680284611f050
:10375800b3fb06460028f5d090f8423013f0400f2e
:10376800f0d0daf8008012f008ff0bfb00f708eb46
:10377800070494f8582012f001030193e2d0b4f83a
:103788005630023b9bb2052b0cd812f0200f09d003
:10379800236a3bb1454a1268d31ab4f850209342c1
:1037a800bff491aeb4f85630013b0b2bcad801a236
:1037b80052f823f0e73440001f35400067354000d9
:1037c80091354000ef354000233640001137400066
:1037d800293740003d3740002d384000633840000d
:1037e800bd384000314b1b68e360092130460ff0bb
:1037f80047ff94f858306ff3820384f858306369b0
:10380800a268134422699b1ae2689b1a5b083b2b47
:1038180098bf3c23e361254b1b6863600a23a4f827
:1038280056308fe7314620460af0bafc0a2889d17b
:103838001e4b1a68a368d31a61698b4203d30b2302
:10384800a4f856307ee76368d21ae3699a42fff417
:1038580079af0923a4f8563074e7012309223146c9
:10386800204605f081fa00283ff46caf0f4b1b6827
:10387800e3600a2130460ff003ff94f858306ff3e5
:10388800820384f85830a369a268134462699b1aba
:10389800e2689b1a5b083b2b98bf3c23e361034b10
:1038a8001b6863600c23a4f856304be728094020b6
:1038b80018094020314620460af072fc0a287ff495
:1038c80041af234b1b68a2689a1aa1698a4209d2a0
:1038d80062689b1ae2699342fff434af0b23a4f8a1
:1038e80056302fe70022022120460ef05dfe072108
:1038f80030460ff0c5fe25e7164bb3f9000011f06e
:1039080039fe07b0bde8f08f10f02aff04460d46d7
:1039180012f0e8ff024600232046294610f050ff27
:103928000b4b1860c3e502a930460cf079fc032361
:1039380004223146204605f017fa0723a4f856302a
:10394800034b1b686360052130460ff099fef9e6ca
:0839580028094020c0094020ad
:020000040000fa
:020000040040ba
:103960005443502f495020537461636b3a202573a0
:10397000204d414320696e697469616c697a617494
:10398000696f6e206661696c65640d0a0000000055
:103990005443502f495020537461636b3a20257370
:1039a000204d4143204f70656e206661696c6564ef
:1039b0000d0a00005443502f495020537461636b2b
:1039c0003a204d6f64756c65206e6f3a2025642037
:1039d000496e697469616c697a6174696f6e206699
:1039e00061696c65640d0a005443502f495020539f
:1039f0007461636b3a202573204d414320657665e1
:103a00006e74206e6f74696669636174696f6e208d
:103a100073657474696e67206661696c65640d0a0c
:103a2000000000005443502f495020537461636bd1
:103a30003a20486561702044656c65746520666154
:103a4000696c210d0a0000005443502f4950205347
:103a50007461636b3a2048656170206372656174bc
:103a6000696f6e206661696c65642c20747970657d
:103a70003a2025640d0a00005443502f495020532a
:103a80007461636b3a204e6574776f726b20636f5d
:103a90006e66696775726174696f6e20616c6c6fb8
:103aa000636174696f6e206661696c65643a202594
:103ab0006c750d0a000000005443502f49502053ec
:103ac0007461636b3a205061636b657420696e6941
:103ad0007469616c697a6174696f6e206661696c82
:103ae00065643a20307825780d0a00005443502f41
:103af000495020537461636b3a2044656661756c6c
:103b00007420466c617368204e6574776f726b2009
:103b1000636f6e66696775726174696f6e206c6f32
:103b20006164206661696c65642025640d0a00008b
:103b30005443502f495020537461636b3a204e65b3
:103b400074776f726b20636f6e66696775726174ec
:103b5000696f6e20696e697469616c697a617469f4
:103b60006f6e206661696c65643a2025640d0a00f9
:103b70005443502f495020537461636b3a204e6573
:103b800074776f726b20636f6e66696775726174ac
:103b9000696f6e3a20416c6961736573206e6f7452
:103ba00020737570706f727465643a2025640d0a15
:103bb000000000005443502f495020537461636b40
:103bc0003a204e6574776f726b20636f6e6669671b
:103bd00075726174696f6e3a20696e76616c6964a2
:103be00020495020616464726573733a20307825ef
:103bf00038780d0a000000002573256400000000dd
:103c00005443502f495020537461636b3a20506fd6
:103c1000776572204d6f646520696e697469616ca7
:103c2000697a6174696f6e206661696c3a202564f7
:103c30000d0a00005443502f495020537461636ba8
:103c40003a2044796e616d6963206d656d6f72799c
:103c5000206973206c6f773a20256c750d0a00007f
:103c60005443502f495020537461636b3a20496e7e
:103c7000697469616c697a6174696f6e20666169e3
:103c80006c6564202564202d2041626f7274696e1a
:103c90006721200d0a0000005443502f4950205343
:103ca0007461636b3a20496e697469616c697a6109
:103cb00074696f6e2053746172746564200d0a001c
:103cc0005443502f495020537461636b3a204e6522
:103cd00074776f726b20636f6e666967757261745b
:103ce000696f6e206c6f6164206661696c65643a0f
:103cf0002025640d0a0000005443502f49502053e2
:103d00007461636b3a205469636b207265676973f1
:103d100074726174696f6e206661696c65643a20c3
:103d200025640d0a000000005443502f49502053d1
:103d30007461636b3a20496e697469616c697a6178
:103d400074696f6e2053595320544d522066616937
:103d50006c65643a202564202d2041626f7274697d
:103d60006e6721200d0a00005443502f4950205304
:103d70007461636b3a20496e697469616c697a6138
:103d800074696f6e20456e646564202d20737563c1
:103d900063657373200d0a005443502f495020531c
:103da0007461636b3a20496e697469616c697a6108
:103db00074696f6e206661696c65643a203078259d
:103dc00078202d2041626f7274696e6721200d0a80
:103dd00000000000382e3130202d20483300000034
:103de000756e6b0065746800776c616e000000bfd3
:020000040000fa
:020000040040ba
:103df000a94b1b68002b40f01f822de9f04fbbb090
:103e0000a64b1c6814b1dff8d4b2a1e0a44911f8a4
:103e1000012fa4480bf024fb38b1a04b1c68002ce8
:103e2000f1d101203bb0bde8f08f9f4b1b78002bf8
:103e3000f3d112f055fd012803d89b4b01221a70d3
:103e4000ebe712f047fd99490cf0a0fdf5e70023e0
:103e50006375974e04f1120803273a4631684046cd
:103e600011f036fb002800f0e5810c365e45f4d1f8
:103e70000023238268e00d2839d00a2837d008288b
:103e800000f06c817f2800f09c811b2800f0b98134
:103e9000e26904f12008a2eb08034f2b00f3ba817a
:103ea000a369d31a00f0b281d01a12f8011c02f8eb
:103eb00001198242f9d1e269511ce161002151707e
:103ec000a26901327b4904f1720012f010f8214618
:103ed00001f8717f336828469847a3691f70a3696a
:103ee0000133a361e26993422ed9e3612ce004f12e
:103ef000200ae369534555d033686f4928469847ef
:103f0000e36900211970c4f818a0c4f81ca020228d
:103f10000deb020012f000fb676804975122514636
:103f200010a812f007fd082208a910a80bf0e8fd60
:103f3000039000283bd123681b68604938469847a6
:103f400033685f4928469847a468002c3ff469af5e
:103f500026686568f368284698470028f4d03369d6
:103f6000284698470746b4f91030002b83d0e21852
:103f7000907401331db22582032d3ff468af022dea
:103f8000e2dde668b3689d42ded1316804f11200db
:103f900012f02ef918b9736831462046984700236d
:103fa0002382d1e73368474928469847cce7039beb
:103fb000002b05dc23681b68434904989847bfe73a
:103fc000d4f8cc30d4f8d070bb4235d07a68c4f87d
:103fd000d0201360d4f8cc30d4f8d0205a605122cd
:103fe000514607f1080012f0a5fcd4f8cc3053b3c9
:103ff0003b60d4f8d0307b601f60d4f8cc305f6079
:10400000c4f8cc700023c4f8d430ddf820802f4fe2
:104010003968404612f0ecf8e0b10c372c4b9f4267
:10402000f6d12c4b03f11802d83305930696cdf840
:104030001ca0a246914658e00022c4f8cc20c4f847
:10404000d0201f46cbe7c4f8cc70c4f8d0703f60d6
:104050007f60d7e7039b082b06dd23685b68082297
:104060001d49049898476be77b6808aa0399204686
:10407000984765e75446069edaf800305b680822e8
:104080001549049898475be75446069e7b6808aa42
:1040900003995046984753e780094020b4084020d0
:1040a00078094020c0634100cd094020806c400069
:1040b000502a4100686d4000e86b4000a46c40004d
:1040c000446d4000186c4000146d40006454410081
:1040d00088544100d4024020dc6c4000982a410002
:1040e00009f11809059b4b4532d04c4659f8146c20
:1040f000002ef5d059f8087c9fb15122079925a8c8
:1041000012f018fc59f8043c0093512325aa51469b
:104110003046b847f8b9082208a925a80bf0f0fcea
:104120000390039b082ba5dc54f8147c54f8184c1e
:10413000002cd5d0ddf8208000263968404612f0ea
:1041400057f80028a0d001360c37a642f5d1c7e7b2
:104150005446069e2ee75446069ef1e6a16904f1f8
:10416000200399427ff6f0aee36999421ed24a1ebf
:104170005b1a06d0581e0144507802f8010b8a429f
:10418000fad1a269013aa261e269511ee1610021fe
:1041900002f8011c04f17107a2692849384611f0a0
:1041a000a6fe3368394628469847cde63368244949
:1041b00028469847a369013ba361e369013be3619a
:1041c000c2e6e369a26993427ff6beae511c5b1a58
:1041d00005d0d018517802f8011b9042fad1e2695b
:1041e000511ee161002102f8011c04f17107a2696e
:1041f0001449384611f07bfe336839462846984703
:10420000a2e61b23a374012323829de6002384f8e6
:1042100072305ce60c4f336807f5f8712846984712
:10422000c4f81880c4f81c80336807f5e27128468a
:10423000984789e6e660a4e601207047486d400093
:0c424000546d40005c6d4000806b40003d
:020000040000fa
:020000040040ba
:10424c002de9f04f8db046688468b6fa86f56d0995
:10425c00002c08bf0125002d40f03481b36a002bdf
:10426c005ed0c168d0f810b0bbfa8bf35b09039138
:10427c00002908bf01230593002b51d19f4f054600
:10428c000fcd0fc795e8030087e8030019461b887c
:10429c00012b00f02881abf102020b460833b2f17e
:1042ac00ff3f41d0013a19880129f7d1d3f804a076
:1042bc00baf1000f3ad0daf80430002b36d0daf825
:1042cc000830002b32d0daf80c307bb3002150468a
:1042dc0012f02af806908a4bd860002800f008816a
:1042ec009af80020864b1a74069883686c22214633
:1042fc009847844b186078b322463146069810f0e4
:10430c0025f9054600283ed112f0e4fa98bb0324a7
:10431c0012f0e0fa002840f0ce8009f01df9059d5e
:10432c0028460db0bde8f08f4ff0000a744b002208
:10433c00da6012f0cffa08b90124e9e712f0c4faf6
:10434c00baf1000f06d09af800206f490cf018fb58
:10435c000124dde70022f8e712f0bcfa08b90224c8
:10436c00d6e712f0b1fa6c2202fb04f267490cf0aa
:10437c0007fb0224cce712f0a7fa069a64490cf06a
:10438c00fffa0324c4e75e4b1c60c3f808b05d4b16
:10439c001f68002c40f3ca80b0464ff00009002281
:1043ac003946404606f098fba8b109f101096c3773
:1043bc0008f138084c45f2d10790524bd3f80080e5
:1043cc004f4b5f680599c6464ff0000cddf81c900a
:1043dc0050468a4621e012f07dfa20b912f07afaa2
:1043ec0040b9042494e712f06ffa4a4649490cf09c
:1043fc00c7faf3e712f068fa224647490cf0c0fa04
:10440c00042485e70137ca4601336c329c4203d041
:10441c00506c8842f8d1f5e70498def844100cf1a2
:10442c00010c0ef16c0e644550d07246634604903c
:10443c00eee712f04ffa08b9052469e712f044fad6
:10444c002f4b5a6835490cf09bfa052460e70cf1a8
:10445c00010c6c30644573dd81690029f7d00cf1d7
:10446c00010300f16c029c426addd0f88470b94201
:10447c0006d001336c329c42e9d09769b942f8d12d
:10448c0012f028fa08b9062442e712f01dfa3a464f
:10449c0023490cf075fa06243ae7814612f01afa11
:1044ac0008b9072434e712f00ffa4a461d490cf0fc
:1044bc0067fa07242ce712f007fa22461a490cf087
:1044cc005ffa2ae700252be7082421e751468246ac
:1044dc0009b10b4b5f600a4bd3f804c0bcf1000f61
:1044ec00a7d14046b8e7039be0e612f0edf92ae7c6
:1044fc0012f0f0f90028f8d1012409e72008402037
:10450c00ac07402050094020483a4000783a40001f
:10451c00b83a4000ec3a4000303b4000703b400061
:10452c00b43b4000003c4000603c4000464bd3f89c
:10453c000080464b5b68002b7ff47baf059b079399
:10454c000023434a136009930a930b933f4b1b6858
:10455c00002b26dd08f162074ff00009cdf810a002
:10456c00a24627f80a9cfb790caa02eb830858f8a0
:10457c000c4c0094374a52f82330374a07213846fe
:10458c0011f0a2fc0023bb71013448f80c4c09f16a
:10459c0001096c372d4b1b689945e2db5446ddf85d
:1045ac0010a04ff41c7200212c4811f0afff2c4bc3
:1045bc0000221a602b4f9ae80f0087e80f002a4f51
:1045cc0007f19008384612f0c9f90c374745f9d174
:1045dc001e4b00221a771c4bd3f800a0079bf3b19b
:1045ec001a4fa046a94655461446306a0ff07eff76
:1045fc0000f0fd03012b7ff450af78777d61bc6137
:10460c005b46039a3146384602f068fe00283ff4b8
:10461c005baf01346c353836a045e6dc4d46069868
:10462c00836998470446b0f5006fbff479ae12f079
:10463c0051f901287ff674ae12f046f922460b4967
:10464c000cf09ef96ce600bf50094020ac074020ee
:10465c004c09402074684100f83b4000d0fa4520da
:10466c004409402090084020c8044020343c4000bd
:020000040000fa
:020000040040ba
:10467c002de9f04f242987b006460f46144601d881
:10468c00012903d1b84b16221a6050e0f36bf26c7f
:10469c00934220d25a1cf26318782028f6d0a0f14d
:1046ac000903042bf2d92b2801d02d281bd12d283e
:1046bc004ff0ff3318bf00230193f26cf36b93425e
:1046cc000dd25a1cf2631878f26c7fb1102f50d1b6
:1046dc0030280dd04de030460af072fbdde7304655
:1046ec000af06efbf0e700230193ede730283fd191
:1046fc00f36b934222d25a1cf263187840f02003d9
:10470c00782b2bd1f36bf26c93421bd25a1cf263b5
:10471c001878964b03445b780f2b40f2c680f36cf1
:10472c00002b00f09e81f36b84b1023bf3630024f9
:10473c0000252046294607b0bde8f08f30460af028
:10474c003ffbdbe730460af03bfbe2e7013bf36360
:10475c0000220023304610f05dfde8e7002f00f04a
:10476c00f3800a2f40f0a2800024814dba4619e054
:10477c000a277e4b03445b78bb42f2d312b1f36b36
:10478c00013bf36300220023304610f043fd79e730
:10479c00f36b0afb04049342a4f1300470d25a1c4c
:1047ac00f2631878f26ca0f13003092b01d8ac42fb
:1047bc00eed90025a0f13002092ad6f84ce03fd8fa
:1047cc00dff8b0b14ff0993aab4508bfa24517d30b
:1047dc004fea850ca3001b194cea947145eb0101bf
:1047ec0013eb03086fea020302934ff0ff330393ba
:1047fc00dde902ab41eb0109cb4508bfc24543d211
:10480c005a4b184498464278ba4219d2f36bf26c60
:10481c00934280f00e815a1cf2631878404443781e
:10482c00bb42f3d3504b109922221a60002301f0a3
:10483c0001021343dde91045019b18bf00230193ce
:10484c00f36c13b1f36b013bf363dde910239d4271
:10485c0008bf9442c0f0fd801099002301f00102c2
:10486c00134340f0ea80019b002b40f0e6803e4b66
:10487c0022221a60119b11f1ff3443f1ff3558e7e6
:10488c0030460af09dfa8de718eb02044ff0000356
:10489c0049eb0305f36b734503d25a1cf26318788a
:1048ac0088e730460af08cfa84e710277c1e3c40df
:1048bc002e4d40f0b68017237b43c3f342132b4499
:1048cc0093f801a1f26c2b185b789f4202d9b4f1da
:1048dc00006f3bd34ff0ff33caf12001aaf1200245
:1048ec0023fa0af803fa01f148ea010823fa02f262
:1048fc00dff878b0002548ea020823fa0af90beb36
:10490c000003d6f84cc059788f427ff679afa94591
:10491c0008bfa045fff474afaaf1200004fa00f020
:10492c0005fa0af2caf1200324fa03f3024342ea1d
:10493c000305f36b04fa0af0634541ea00041bd249
:10494c005a1cf2631878dae70827afe704fa0af47e
:10495c001c43f36b934203d25a1cf2631878b1e7f1
:10496c0030460af02dfaade7b4094020bab9400040
:10497c00989999199999991930460af021fabee734
:10498c0004fb0734f36b934247d25a1cf26318783a
:10499c00f26c2b185b789f4201d94445f0d9002565
:1049ac00324bd6f84ce0034493f801c067457ff6d0
:1049bc0027af4ff000084ff0000955b1a4fb07ab2f
:1049cc005a460023e5fb07231bb14ff001084ff0bb
:1049dc00000958ea09037ff413af5ffa8cf86fea09
:1049ec00080104914ff0ff310591dde904aba7fb01
:1049fc00042307fb05339b4508bf92454ff0000984
:104a0c00fff4feae12eb080443eb0905f36b7345a0
:104a1c000bd25a1cf2631878c2e730460af0d0f970
:104a2c00b6e70024dff84c80b2e730460af0c8f94c
:104a3c00b6e730460af0c4f9f0e6dde91023ab42e4
:104a4c0008bfa24205d20a4b22221a60dde91045aa
:104a5c006fe6019b01337ff46cae644265eb450558
:104a6c0067e6002c7ff463ae72e600bfbab9400073
:084a7c00b4094020c6711c07bb
:020000040000fa
:020000040040ba
:104a84002de9f04fadf5297d059022ac4ff400726d
:104a94002146b0f9240007f008ffa394a29404eb84
:104aa400000bcdf890b20c22a5a9a2a80ff07efab3
:104ab400019020b901980df5297dbde8f08fbdf86e
:104ac4009422130a43ea0223adf89432bdf89622e5
:104ad400130a43ea02231bb2adf89632bdf89e12c4
:104ae4000a0a42ea0122adf89e22bdf89a120a0a85
:104af40042ea0122adf89a22bdf89c120a0a42ea5f
:104b04000122adf89c22bdf898120a0a42ea012259
:104b1400adf8982213f0030f3ad1002603960096bd
:104b2400cdf81cb018e1bdf8983204933bb92fe0de
:104b3400bdf89a320493049b002b00f004814ff0db
:104b4400000b4ff000038df81b3060e1bdf89c3280
:104b54000493f0e7bdf89e320493ece70df13409b9
:104b640022e02d0205f47c5501220aa948460ff0e3
:104b74001dfa68b19df8282022ab0e930d93079b74
:104b84000f932a4400990da80ff010fa0028e5d1dc
:104b9400019b83f00103dbb201938be7ed1a63bb46
:104ba4001f4665bb3d44a84401220df12701484638
:104bb4000ff0fcf90028ebd09df82750002d00f0f1
:104bc40030812f4605f0c003c02bcad0d4b121ab2d
:104bd4001b1b9d42e2dc009d3a46214648460ff0ed
:104be400e5f90028d4d03c4421ab9c42d9d22e23f1
:104bf40004f8013b08f10108d3e71f46ece70297ec
:104c04002f4601e0009b02933a46009948460ff074
:104c1400cdf90028bcd03d46029fc3e7013c08f112
:104c2400ff3808e111ac06e11e46dfe00a220aa9ba
:104c3400a2a80ff0bbf90028aad0bdf82a30180aa0
:104c440040ea032080b2adf82a00bdf830301a0ad9
:104c540042ea032292b2adf830200b9b190e41eace
:104c640003611c0204f47f0421431b0a03f47f4301
:104c74000b430b93bdf828100b0a43ea01239bb2a4
:104c8400adf828300eb1012807d00099a2a80ff082
:104c94008df9002840f0b6807ae7042a01d1012b6f
:104ca4002fd01c2bf1d1102aefd196f82a3013f013
:104cb400020fead096f82710059b5b8c9942e4d248
:104cc4000da9a2a80ff072f900283ff461af96f87d
:104cd40027502d01d6f814c00ceb05070dac0fccf2
:104ce4004cf805007960ba60fb600b9ab3690bb1ac
:104cf4009a4200d2b26196f82730013386f8273001
:104d040080e096f82610059b1b8c9942bdd20da914
:104d1400a2a80ff04bf900283ff43aaf0d9996f88a
:104d24002620336943f822100b9ab3690bb19a42d7
:104d340000d2b26196f82630013386f8263061e05d
:104d440000230493f7e6baf1000f3ff421af039b6d
:104d540001330393042b0fd09df80ca0baf1030f79
:104d6400eed801a353f82af02b4b4000354b4000fa
:104d7400514b4000594b4000002e3ff409aff38cd7
:104d8400002b3ff405af338823f4807343f0800392
:104d94003380002386f82a3096f8263013b1012395
:104da40086f82a3096f827302bb196f82a3043f04b
:104db400020386f82a30b36913b94ff49663b361da
:104dc400059ad369b360f360d38c013bd384002389
:104dd4000193dde6028812f0800f7ff4d9ae002e35
:104de4003ff422af9e427ff4d3ae1e46baf1000fc9
:104df4007ff41caf04220099a2a80ff0d7f8002872
:104e04003ff4c6ae0bf1010b049b9b459fd09df86c
:104e14001b308df844300df5227911ac4ff00008a9
:104e2400c2e65cb111ab9c423ff4fcae14f8013c09
:104e34002e2b3ff4f3ae4ff000032370b8f1000fb4
:104e44007ff7a6aebdf8944211a9059b18680bf034
:104e5400a3fe034610b1828ca242bbd0002ec5d063
:0c4e6400338813f0800fc1d092e600bf2d
:020000040000fa
:020000040040ba
:104e70002de9f04f2ded0c8b1d4692ed008bd1e905
:104e80000083b5eec08b8db0f1ee10fa03930b6981
:104e90000790d1f808900493cc6807d418f0040f59
:104ea00035d118f0080734d0202302e02d23b1eecd
:104eb000488b237009f1ff36012718ee901adff8ae
:104ec00078b321f0004318ee102a4ff0000a5b453a
:104ed00008bf524504eb0700a5f141011bd1192978
:104ee00004eb070094bfd049d04911f01dfdcf4815
:104ef00011f01afbcdf8008002464b462146079878
:104f00000af0bdfe0db0bdec0c8bbde8f08f2b237d
:104f1000cfe74e46d1e79b4508bf924507d21929f6
:104f200094bfc349c34911f0fffcc248e0e73022f7
:104f30001a2907f101030270b5ee408b34bf5822e5
:104f40007822f1ee10fae254b7ee009b07f1020767
:104f5000a6f102064ff0000a40f0e880b0ee49bb2f
:104f6000b0ee48cb039b9fedaadb002bacbf9b466a
:104f70004ff0180b0025b0ee4dab8cee0b0b0691ed
:104f800008f056f86b1c0593039b00ee4bcb002bef
:104f90002bee0dbb069904dab5ee40cbf1ee10fa1c
:104fa00005d0ab4500f3e5800bf101030593b2eeac
:104fb000007b2bee077bb4eec7cbf1ee10fa00f1cd
:104fc000da80b4ee47cbf1ee10fa09d1bdeec00b9a
:104fd0009fed916b10ee103a13f0010f06fe077b68
:104fe00038ee078b18ee900adff84cc218ee102a44
:104ff00020f000434ff0000b634508bf5a453ff4d3
:105000006eaf049a4ff0000b053a3d46cdf818b04c
:105010005b460992099aaa421ddd88ee090b0a93a4
:10502000089108f005f8fdeec07bb0ee40bb17ee2e
:10503000900a08990a9b002840f0a080002b00f0fd
:105040009d800bf1010b059a0bee498b01339a42bf
:1050500029ee0a9bded1069bdbb96319bbf1000f79
:1050600000f0ec80039a002a40f3e88018f0010f6a
:1050700040f0e4802e221a700beb0502224430200f
:1050800003f8010f9342fbd15d446fea0b0b01352e
:105090005e4463190393049b04980022013b9245ec
:1050a0006255b8bfcaf1000ae254c0f1020bb8bfa2
:1050b00001224ff00a0cbaf1000f40f096800beb82
:1050c000030ebef1010f00f09080002a03f1ff3cb7
:1050d00014bf2d222b22023b1a2904f80c2034bfc6
:1050e000502270229d4204eb0301e25402da03983d
:1050f00011f01afc08f00303022b11d1b51e002d8c
:105100000edd204611f010fa013e2044031b9f42a1
:1051100077dd2a463021e01911f0fef94ff0000941
:105120002046e5e60af1010ab0ee479b39ee097b1d
:10513000b4eec78bf1ee10faf4d5b6ee007bb0ee0c
:10514000475b9fed376bb4eec98bf1ee10fa7ff53c
:1051500005af29ee074bb5ee404bf1ee10fa04bf58
:1051600029ee069b28ee068b29ee059b0af1ff3af5
:10517000e9e7059d01e79fed287b31e7069a32b903
:105180002bb12e2262550122013e0135069208956f
:1051900004eb050c5a4604e04ff0300e0cf801eb1e
:1051a000013a002af8d10928089a05f1010506f10b
:1051b000ff36d4bf3030573019295d445a44a6eb2e
:1051c0000b060ed840f0200cacf1610cbcf1190fad
:1051d00007d8cde90a32089111f0eff9dde90a327a
:1051e0000899a0544ff0000b2de7bafbfcfe013be1
:1051f0000cfb1eaa0af1300a04f803a0013ef24695
:1052000059e710f80139835580e700bfaff30080fc
:10521000000000000000b03f00000000000000009f
:105220000000000000005043386541003c6541002b
:1052300040654100446541000000f07f18f0100f08
:0c5240003ff427af2e2201351a7022e740
:020000040000fa
:020000040040ba
:10524c002de9f04f8bb09df8504002948b4c246aa2
:10525c0014f0010f28d00124884d2c62bff35f8f0e
:10526c000494002900f07281089307920691064677
:10527c00029a91462c2303fb0203d3f88c10059160
:10528c0002ebc20200eb4202b2f89671b3f8ac40ea
:10529c00002f00f05d8100230193039398461d4677
:1052ac002c2303fb090978e000240494d9e75968fe
:1052bc0011f4804f08d10199013189b201915b68d9
:1052cc0013f4004f5ad057e1039b019a9d186b1ea3
:1052dc0093fbf7f507fb1535002d00da3d44adb215
:1052ec00ddf804a001e0013dadb20af1ff3a1ffa6e
:1052fc008afa4ff6ff739a4525d0ab46d9f8883019
:10530c0053f825008368c1689847d9f88830002283
:10531c0043f82520336b1bb1052106f15800984743
:10532c00d9f88c2052f83b3003f0030342f83b30a1
:10533c00336b1bb1062106f158009847002dd2d1d2
:10534c007d1eadb2d1e7019b039a0299304605f060
:10535c00e3ff08f1ff381ffa88f81cb97c1ea4b2d1
:10536c0000250be0013ca4b2002507e001232246f6
:10537c000299304605f0d0ff00e06dbb0134a4b2b9
:10538c00a74298bf002408f101039bb24745c0f027
:10539c00df809f4240f2dc809846e200059883183b
:1053ac0050f8341011f0010fe7d050f8341031f0f0
:1053bc000301dbd0002d7ff47aaf596811f4804fd4
:1053cc00dcd05b6813f4004f40f0d38003940123ce
:1053dc00019398461d46d1e7039b019a9d186b1ebd
:1053ec0093fbf7f507fb1535002d00da3d44adb204
:1053fc00ddf804a001e0013dadb20af1ff3a1ffa5d
:10540c008afa4ff6ff739a4525d0ab46d9f8883007
:10541c0053f825008368c1689847d9f88830002272
:10542c0043f82520336b1bb1052106f15800984732
:10543c00d9f88c2052f83b3003f0030342f83b3090
:10544c00336b1bb1062106f158009847002dd2d1c1
:10545c007d1eadb2d1e7019b039a0299304605f04f
:10546c005bff08f1ff381ffa88f81cb97c1ea4b248
:10547c00002583e7013ca4b200257fe7000005402e
:10548c00013dadb24ff6ff739d4253d0d9f80030b9
:10549c001b694246b84528bf3a469a81d9f8003074
:1054ac001b69a3f80e80b84594bfa7eb080700272b
:1054bc00059400234af82430336b13b10521079867
:1054cc009847059a5bf8323003f003034bf83230ff
:1054dc00336b13b1062107989847d9f800301a6935
:1054ec00938993b1926802f01f011944bff34f8f57
:1054fc0013460a443e49c1f85c322033d11a0029c4
:10550c00f8dcbff34f8fbff36f8f002fb8d001348f
:10551c00a4b2089ba34298bf0024d9f800301b69a1
:10552c005af8242012691a60d9f800301a691268e6
:10553c001a61a5e7069b1b68099a1a61019b039add
:10554c000299304605f0e8fe002008e001200de04d
:10555c002c20029b00fb0366a6f8ac400120049ba8
:10556c0023b1244b01221a62bff35f8f0bb0bde84d
:10557c00f08f0394012301932c23029d03fb0561ff
:10558c00a1f8ac40d1f88c0010444068089c206015
:10559c000798019c0460d1f88c1003fb05f3883349
:1055ac00f01856f803a0d0f804b005ebc5035b0067
:1055bc0003f5cb73f018f35a0893b0f80e80039be5
:1055cc005af82330069803600a4457680cb9012036
:1055dc00c5e7c7f30d071b690993019b5d1eadb2af
:1055ec00039c06f158030793ddf818904ee700bfb3
:0855fc0000ed00e00000054095
:020000040000fa
:020000040040ba
:0456040000207047cb
:020000040000fa
:020000040040ba
:105608002de9f04f2ded0a8b92ed00bb8fb0b5ee72
:10561800c0bb05938b680293f1ee10fa0b690790f3
:105628008946d1e900870893cd6808d418f0040f9b
:1056380035d118f00803039333d0202302e02d233b
:10564800b1ee4bbb2b70029b5e1e012303931bee36
:10565800901a21f00043039969180491c2491bee7e
:10566800102a00208b4208bf82421cd1059b049857
:10567800413b192b94bfbd49bd4911f051f9bc48b4
:1056880010f04effcdf800800246029b079829468d
:105698000af0f1fa0fb0bdec0a8bbde8f08f2b23ae
:1056a800d0e7029ed3e7994208bf90420ad2059bf1
:1056b8000498413b192b94bfae49af4911f030f91a
:1056c800ad48dde7b5ee40bbf1ee10fab2ee049b53
:1056d800b7ee00ab4ff0000416d1059810f062ff4a
:1056e800002fc0b2c0f2328167282ad1002f08bf2c
:1056f8000127231d02dbbc42c0f220814ff0650a5e
:105708002fe00134b0ee47ab2aee097bb4eecb7b39
:10571800f1ee10faf5dd0023984a9fed8f7b0ae041
:10572800944205da23b92bee07bb2aee07ab012317
:10573800013c8aee09abb4eecabbf1ee10faefd425
:10574800cbe78246baf1660f07f1010709d1002cb1
:1057580002dab7ee00ab0024672818bf3f194ff0f4
:10576800660a4ff0000bb0ee4a8bb0ee4bcb8ceed6
:10577800080b069007f058fc0bf1010bfdeec07bff
:105788005f4590ee08cb17ee903ab1ee4ccb88ee21
:10579800098b0698ebd1b1ee047b28ee077bb4eebb
:1057a800c7cbf1ee10fa74d4b4ee47cbf1ee10fa91
:1057b80005d19fed6b6b13f0010f06fe077bbaf165
:1057c800650f14bf21460021cb1b0a934ff0000b35
:1057d80008f01003039fcdf818b00b933bee07bbfe
:1057e8000a9b09978b4204d0d9f81030053bbb427d
:1057f80052d8069b33b918f0100f1fbf099a2e23f1
:10580800ab5401370022baf1650f05eb0700ea55e2
:1058180029d1089b0899013b9442ea54c1f1030e2f
:10582800bcbf644201220a21002c79d10eeb030c83
:10583800bcf1000f74dc002a03f1ff3114bf2d22e4
:105848002b226a54059a413a023b192a98bf4ff015
:10585800450a9f4205eb030105f803a0a6f10206dd
:1058680001da11f05df808f00303022b0fd1002ec6
:105878000ddd284610f054feab19039a824259dd1b
:1058880032463021049810f043fe00230293284644
:10589800f6e69fed337b92e78bee0a0bcde90c1011
:1058a80007f0c2fbfdeec07b0b9b17ee902a13435b
:1058b800dde90c100ed167280cd1002917da0bf19d
:1058c80001039aee00bb0139b1ee4bbb8aee09ab7e
:1058d8009b4685e7069b53b9002908da099b4ff0d8
:1058e8002e0c05f803c001230137013e06933a4602
:1058f80005eb070e5b4604e04ff0300c0ef801cbc9
:10590800013b002bf8d12a44944617ee902a013720
:10591800013e30325f44a6eb0b060cf80b20d0e7b3
:10592800b4fbf1fc013b01fb1c443034ec54013e58
:10593800644679e72a5c1a5401389ee7002cbff6c2
:105948000eaf4ff0660afde60627d2e66728fbd0c1
:1059580082460627f6e600bf00000000000050431c
:1059680000000000000000000000f07f48654100d2
:105978004c6541005065410054654100d4feffff6d
:020000040000fa
:020000040040ba
:105988002de9f04184b041f25003984240f06a8119
:10599800c24b9b7d13f0010f40f0578113f00206b4
:1059a80040f063814c688f68e368002b00f06081e9
:1059b800002f00f05d81fb6f002b00f05c81d7f8b1
:1059c8008030002b00f05a81b44d4ff40c72002146
:1059d800281d10f09dfd4ff0ff332b61eb60002276
:1059e8002a754ff0000362f30413ab75284610f0d4
:1059f80057f8e368ab616368eb61a3682b62b4f99d
:105a08003030a5f8283223696b626369ab62a369f9
:105a1800eb62e3692b63e38ea5f8303213f0010fd4
:105a280018bf022685f83262e38e13f0010f14bf07
:105a38006ff003034ff0ff33c5f82c32002385f8cd
:105a480033329822394605f5c87010f03cfc012124
:105a580028460af075fd022128460af071fdb5f8be
:105a6800a031002b00f00d81b5f8a4313f2b40f296
:105a78000b81b3f5c06f28bf4ff4c0633f3323f0e9
:105a88003f03864aa2f8a4310123104603ebc30260
:105a980000eb4202b2f8a021002a00f0f88003ebe4
:105aa800c30200eb4202b2f8a4213f2a40f2f2807e
:105ab800b2f5c06f28bf4ff4c0623f3203ebc30199
:105ac80000eb410122f03f02a1f8a4210133dbb22f
:105ad800052bdbd9714809f04fff002800f0e8805a
:105ae8006e4b224652f8380fc3f890019288a3f8fb
:105af80094211b6b2bb1012169489847002800f0bd
:105b0800da80664d00223f2128460df089fad5f843
:105b18000c622f893368d5f8101238469847b0f1cf
:105b2800ff3f00f09780e860736903213846984783
:105b3800b0f1ff3f00f08e802a462861d5f8103278
:105b480019890091b5f80412adf80410997a8df806
:105b580006100f218df807101b690293f36a34327f
:105b680069469847002875db4c4d284609f04cfae1
:105b78004ff0ff324ff0ff33cde9002300238df8bb
:105b88000c306946284603f0d3f9464a5168464b1b
:105b98000b4043f040035360284610f056ff00289e
:105ba80058d13e4805f04afc002853d13b4808f03c
:105bb8005bf800284ed10025384fe9b2384607f087
